:020000040800F2
:10000000000002207594050889910008C5220208A5
:10001000259505082595050825950508000000008B
:10002000000000000000000000000000A9AD000872
:10003000ABAD000800000000ADAD0008BD08010830
:100040002595050825950508259505082595050894
:100050002595050825950508EFEE0008F3EE000844
:1000600025950508F7EE0008FBEE00088D990008BD
:10007000A1990008B5990008C9990008DD99000800
:10008000F1990008059A0008259505080000000070
:10009000000000000000000000000000FFEE00086B
:1000A000C5980008ED98000815990008AF98000859
:1000B0003D990008519900086599000825950508A3
:1000C0002595050825950508259505082595050814
:1000D00025950508159400082194000800000000EB
:1000E00003EF000825950508AFAD000800000000EB
:1000F000000000000000000000000000199A000845
:100100000000000025950508799900082595050847
:1001100000000000000000000000000000000000DF
:100120002D9A0008419A0008559A0008699A00081B
:100130007D9A0008000000000000000000000000A0
:1001400000000000000000000000000001AE0008F8
:10015000919A0008A59A0008B99A00082595050803
:100160002595050825950508000000000000000001
:10017000000000000000000000000000000000007F
:1001800000000000259505080000000000000000A8
:080190002595050825950508D9
:080198000890050001000000C1
:1001A00050E70020020400000300142570E700203F
:1001B000010F00000000760090E700200110010010
:1001C00000007700B0E700200116000000001E00CC
:1001D000D0E70020011C000000000D00F0E7002027
:1001E000011D000000000E0010E80020011E0000AC
:1001F00000001E0030E800200119000000000C0083
:1002000050E80020011A000000000E0070E80020F5
:10021000011B000000000C0090E80020022B0100F0
:1002200000012C00B0E800200134000000003C0078
:10023000D0E800200137000000002000F0E8002096
:08024000013800000000290054
:10800000D0E907239A422FBFD01AC0688018C01A3F
:108010007047D0E9092300699A4238BF1218D31A71
:108020000138C01A7047D0E90902131A5842584162
:108030007047036A41690246C85CD16801338B42CC
:1080400028BF002313627047436A8269D154436A90
:1080500002690133934228BF0023426B4362D36815
:1080600043F08003D3607047436B188810F0100012
:108070001EBF1A889B8801207047436B99891A8814
:10808000890610B592B2044607D5900605D5E26A76
:1080900022B39888216B80B29047636B99891A88C4
:1080A000090692B20FD510060DD5D4E909128A42FD
:1080B00022D0A169895C998021690132B2FBF1F07B
:1080C00001FB1022A262998A1A88C90592B204D5CE
:1080D000D20744BF4FF6F7721A8010BD9B88E26941
:1080E0006169DBB28B54E369E2680133B3FBF2F1FF
:1080F00002FB1133E361D0E7DA6822F08002DA6034
:10810000E1E770477047036941681F2B30B54FF0B6
:10811000200285BFA3F120054C680C68AA4098BFD7
:108120009A4022421ED0826900201074D068846870
:10813000206820F0010020605468206865790A4CAE
:10814000828934F8154092B21F2B22EA0402828100
:1081500088BF203B4FF020028BBF9A4002FA03F306
:10816000CA608B6030BD00BFB8EF05080E4BDA68FF
:10817000D20310D4DA68D1060FD4DA68D2050ED44F
:10818000DA6812F0E00F0CD1DB6813F0020F14BFB5
:108190000820092070470120704706207047022000
:1081A00070470720704700BF003C024007B5092315
:1081B0008DF80730FFF7DAFF8DF807009DF80730DC
:1081C000012BF7D09DF8070003B05DF804FB838A0C
:1081D000028B9BB243EA024331EA03030CBF012046
:1081E0000020704782B00023019300930123009088
:1081F0000193019B63B1009A21F07F4314320092F6
:10820000009A12681A4214BF0120002002B0704781
:10821000009A1832F3E77047704701207047044B0B
:10822000D3E90003984288BF03F50063181A70472A
:1082300018150020054AD2E900318B42FDD0D11833
:108240000133C3F30A03087A13607047181500203E
:10825000044BD3F8080820B1D3F80808431F58424C
:108260005841704718150020012380F849307047A5
:1082700010B5D0F8E83504461B699847032384F805
:108280001231002010BD08B590F8123180F813317A
:10829000042380F81231D0F8E835DB6898470020D5
:1082A00008BD08B5D0F8E435DB6903B19847002074
:1082B00008BD08B5D0F8E4351B6A9847002008BD12
:1082C00008B5D0F8E4355B6A9847002008BD10B5C2
:1082D000074C2068FF2808D00649D1F80C2801F582
:1082E000016100F035F8FF232360002010BD00BFBE
:1082F0000000002018150020432301480B80704720
:1083000004000020122301480B8070474700002022
:10831000042301480B8070475900002070477047C4
:108320007047704770477047044B00200522C3F820
:108330000828C3F81808C3F81C087047181500204F
:10834000024B0020C3F80808704700BF1815002032
:10835000212838B50C461BD022282BD0202815D137
:10836000A1B1072A12D11A4DD5F81C3813B10968EA
:10837000002098472368C5F82038237985F82438E9
:10838000637985F82538A37985F82638002038BD2B
:108390000029FBD0072AF9D10D4BD3F820280A6019
:1083A00093F824280A7193F825284A7193F82638FF
:1083B0008B71EBE70029E9D0022AE7D1044BD3F80F
:1083C0001838002BE2D0098800209847DEE700BF6C
:1083D00018150020074AD2F82838D2F82C289342E2
:1083E00003F1FF338CBF002001209B1A03EBC02058
:1083F000704700BF18150020ECE730B50F4CD4E9EA
:1084000000239A4286BF03F50065AA1A9A1A0A4405
:10841000B2F5006F10D801440022814203D102B1AD
:108420006360002030BDE21810F8015B1572013363
:10843000C3F30A030122F0E70220F3E71815002036
:10844000007970470079C0F3401070470079400907
:10845000704700BF704700BF704700BFD0ED007A83
:10846000D0ED036A30EE677AE6EE877AB0EE670AFF
:10847000C0ED007A704700BFD0ED017A80ED021A9E
:10848000F5EE407AF1EE10FA04BF9FED0C7AC7EEDC
:10849000207A31EE277A08BFC0ED017AC1EE076A73
:1084A000D0ED007AC0ED036A30EE677AE6EE877AA7
:1084B000B0EE670AC0ED007A704700BF83F9223E34
:1084C0009FED047AC7EE007A77EEA07A80EEA70AD5
:1084D000704700BF72C7D13D00230360436080ED49
:1084E000020A704790ED017AD0ED036AD0ED027A6E
:1084F00030EE470AA6EE807A90ED000A80ED017A10
:1085000037EE676AE6EE867A37EEC07AC0ED027A19
:10851000A6EE870A80ED000A704700BFD0ED056A1D
:10852000D0ED017A90ED007A90ED066AD0ED025A16
:1085300090ED035A80ED050A66EEA77AC0ED066A53
:10854000E7EE007A90ED077AE5EE867A90ED086A1C
:10855000D0ED045A80ED087AE5EE477AE5EEC67A6A
:10856000B0EE670AC0ED077A704700BFD0ED057A1C
:1085700090ED006A90ED067AD0ED035AE6EE007AAF
:1085800090ED016AF0EE406AA6EE267AB0EE670A38
:10859000D0ED047A90ED026A67EEC07AA5EEC07A5B
:1085A000E6EE267A80ED057AC0ED067A704703681C
:1085B0005A1C02601970704703690133012B036173
:1085C0001CD0D0ED005AD0ED026A07EE903A30EEA2
:1085D000656AF8EEE77A86EE277A77EE257AB0EECE
:1085E000667A30EE670AC0ED017AA6EE007AC0ED39
:1085F000007A80ED037A80ED027A7047002380EDE7
:10860000010A80ED000A8360704703685A1C02600B
:10861000197070472DE9F347038A8689B6B205467B
:108620000C461E404FF0004901F14C0701F134089F
:1086300016B902B0BDE8F087B6FA86F329FA03F25C
:10864000D24391B2298216401B3B002C40D0042B10
:10865000EED8DFE803F039342E280300E368D5F8BC
:108660002CA02BB19B681BB11FFA8AF1201D9847E3
:10867000636A33B19B6823B11FFA8AF104F11C00CD
:108680009847E36B2BB19B681BB11FFA8AF14046F8
:108690009847636D002BCBD09B68002BC8D01FFA86
:1086A0008AF1384603E0E368696B5B68201D9847F0
:1086B000BEE7636AA96B5B6804F11C00F7E7E36B34
:1086C000E96B5B684046F2E7636D296C5B68E8E73D
:1086D000042B06D8DFE803F00D0B09070300EB6A53
:1086E0000193019BA4E76B6BFAE7AB6BF8E7EB6BCD
:1086F000F6E72B6CF4E790F84820531C0244DBB2F9
:1087000080F8483082F8341090F849200AB1132BD1
:1087100001D94FF09ABD7047002280F849204FF0F0
:1087200094BD70B50F4E96F83038002BFBD104463F
:108730004518AC4201D1002070BDD6F82C3814F891
:10874000011BF2180133C3F30A0382F83118C6F88B
:108750002C38FFF73FFE0028EBD101200AF0D7F8B4
:10876000F7E700BF1815002038B50C461146FFF793
:108770006FFD48B1054D002A55F8C43C04DD204684
:10878000FFF7CFFF55F8C43C38BD00BF10260020CE
:10879000F0B590F8CF5590F8CE1590F8D12590F817
:1087A000D03590F8CC7590F8CDC501EB05218DB290
:1087B00003EB022390F8D31590F8D22585B002EB95
:1087C000012207F01F06012192B29BB28E4204469D
:1087D0008DF808708DF809C0ADF80A50ADF80C306E
:1087E000ADF80E20C0F8402180F8111100F00C8186
:1087F000022E00F01D81002E40F09B81BCF1090F7C
:108800005ED8DFE81CF0B600F4005D00C8005D0033
:1088100057000A005D00A90076002E0A022EADF86E
:1088200006200BD0032E25D0012E49D1D0F8EC35EF
:108830001B68A0780DF10601984709E0D0F8E435EF
:1088400080789B6A0DF1060198474670C4F8F005E0
:10885000BDF80620002A47D0BDF80E30002B43D0CB
:108860009A4228BF1A46ADF80620014620464FF02E
:10887000F1FB39E0E9B2052922D8DFE801F003076E
:108880000B0F1317D0F8EC355B68D2E7D0F8EC3556
:108890009B68CEE7D0F8EC35DB68CAE7D0F8EC355A
:1088A0001B69C6E7D0F8EC355B69C2E7D0F8EC3558
:1088B0009B69BEE71A4303D190F81231032B03D111
:1088C00020464FF01BFB0FE0016905F07F0680F8A2
:1088D00014610B6865F30A121A430A604FF0CEFB6D
:1088E0002EB1022384F81231002005B0F0BD01231F
:1088F000F8E7E9B2904D012905F8C01CE0D890F8DE
:108900001231022B0FD0032BDAD1C1B9022380F828
:108910001231D0F8E43580F810115B689847204692
:108920004FF0ACFBE0E70029F9D00121032380F8E8
:10893000101180F8123120464FF0A2FAEFE790F8BC
:1089400010110129EBD0D0F8E4355B68984715F891
:10895000C01C84F81011EEE7012AB1D190F8123151
:10896000022B04D0032BABD100F588717EE773494D
:108970007CE790F81231023B012BA1D86E4B00220C
:1089800043F8B82CD0F8182112B1022243F8B82CC1
:108990006B4902226AE7012D08D1C0F81851D4F8BA
:1089A000E43502A99B6820469847B8E7022D9BD181
:1089B000DAB2002A98D102691B0A023B5268032BE3
:1089C00003D8DFE803F00C0E1012012363F3061244
:1089D000594B43F8B42C012384F816319FE7022346
:1089E000F4E70323F2E70423F0E70523EEE790F82A
:1089F0001231023B012B3FF663AF012D7FF474AFC0
:108A00000023C0F81831CAE790F81221032A7FF436
:108A100057AFDBB2012B3FF653AFD0F8E43502A9D4
:108A20009B689847BDF80E30002B7FF45DAF76E76A
:108A300007F06007202FD9B205D1D0F8E43502A99C
:108A40009B68984750E7BCF1010F31D0BCF1030F90
:108A50001ED0BCF1000F7FF447AF90F81221022A1C
:108A60005AD0032A7FF42CAF13F0800F4FF0280266
:108A7000314B59D001F07F0102FB010191F81E2119
:108A8000002A4FD0012243F8B02C2E490222EDE6F5
:108A900090F81231022B3FD0032B7FF411AF002D41
:108AA0007FF47DAF4A063FF47AAF4FF0F5F976E7F1
:108AB00090F81221022A2FD0032A7FF401AF002D53
:108AC0007FF412AF11F07F003FF429AF5BB2002BAF
:108AD0004FF02802B5BF02FB004102FB014101F546
:108AE0008E7101F55D710022DB0F08708A704B708A
:108AF00004EB8000C9786BB18269136802396FF3A7
:108B0000555301298CBFC3F30071012161F31C731C
:108B1000136044E7426DF0E74B063FF4E5AE4FF0DB
:108B2000BBF9E1E60022AEE702FB010191F87623F2
:108B3000A6E707F08001F2E7102600205425002068
:108B4000582500206025002010B5044671BB90F820
:108B50001131032B1BD1D0F89023D0F87C339A42EB
:108B600017D9C178012908BFD0F88013A2EB0302FE
:108B700004BFC918C0F88013934228BF1346C0F839
:108B800090239BB2D0F8802300214FF027FB0020D8
:108B900010BDD0F8E4351B6923B190F81221032AE7
:108BA00000D1984720464FF069FAF0E7D0F8E43555
:108BB0009B69002BEBD090F81221032AE7D198474C
:108BC000E5E770B50A7812F0600406460D462AD033
:108BD000202C2FD1CC884B78FCB112060CD51F4924
:108BE00022461846FFF7B4FBEA881C4930464FF08E
:108BF00031FA0024204670BD194A1360194A032334
:108C0000C2F80C4880F81131C0E9E444234602F56B
:108C1000016200214FF0E2FAEBE70222114418460C
:108C2000FFF796FBE6E74B780A2B08D00B2B0BD00F
:108C3000062BDFD130464FF061F90224DAE70A490A
:108C400001224FF007FAD5E78B781BB9074B43F8A1
:108C5000AC4CCFE74FF052F9CCE700BF281D002005
:108C60000000002018150020642500201026002098
:108C700010B5282303FB0101074AB1F88C13044601
:108C80001046FFF7BAFB2046034A402301214FF06C
:108C9000A5FA002010BD00BF68250020002310B5F4
:108CA0001946044640224FF037F9402280212046E1
:108CB00000234FF031F9012384F81231D4F8E8355C
:108CC000A0785B689847002010BD38B54022044664
:108CD000022381214FF020F9204602234022012166
:108CE0004FF01AF920460323082282214FF014F98D
:108CF000084B0222002583F84B2083F84C50FFF7E5
:108D000013FB01212046044A40234FF067FA28460E
:108D100038BD00BF000000206825002038B50122C2
:108D2000044640F20113A0F84431012511464FF0EA
:108D300073FA29462046A4F89C5300224FF06CFA9F
:108D40004FF48173A4F86C3120462A4602214FF07B
:108D500063FAFFF7F5FA002038BD38B5254C94F8D2
:108D60003028012A034633D1234850F8682C1AB919
:108D700084F83028002038BD402AD4F8281819D9A2
:108D8000403A01F1400540F8682CC4F828584022C8
:108D90001A4810FA81F1C3E9541140F20110002180
:108DA000C3E95621A3F8440103F5A27118464FF018
:108DB0007CF9DFE702EB0105C4F828584FF0000505
:108DC00040F8685C0ABF022092B284F83008DFE7FE
:108DD000022ACFD1002540F20112C0E95455C0E962
:108DE0005655A0F8442100F5A2714FF05EF984F8C1
:108DF0003058BFE71815002010260020491D00201C
:108E000038B52A4C54F8643C0F2B03F1010203D00F
:108E100044F8642C002038BD254A002344F8643C03
:108E200092F83038002BF5D1D2F82818B1F5006F40
:108E300008BFC2F82838D2F82818D2F82C3899423E
:108E400003D1002382F83038E4E78CBFC1F500631A
:108E50005B1A402B1BD9403B01F1400544F8683CAC
:108E6000012382F83038C2F828584023114A12FAF8
:108E700081F140F20112A0F844210022C0E954110E
:108E8000C0E9563200F5A2714FF00FF9C2E701EBCD
:108E90000305C2F828584FF0000544F8685C0EBF7F
:108EA000022401249BB282F83048DFE7102600201C
:108EB00018150020491D002008B502484CF0F5F8AF
:108EC000014808BD707A0608B025002008B50248A0
:108ED0004CF0EBF8014808BD7E7A0608B02500206A
:108EE00008B502484CF0E1F8014808BD837A06084D
:108EF000B025002008B502484CF0D7F8014808BD5D
:108F00008D7A0608B025002008B502484CF0CDF84F
:108F1000014808BD987A0608B0250020F8B5044637
:108F20000E461546071D20683A46FF2108F05CFAF8
:108F300030B116B12379DB07F5D40DB123792B704D
:108F4000F8BD00220121E9E710B5021D0446FF210A
:108F5000006808F049FA18B12079C04300F0010018
:108F600010BD0068F022FF2107F006BD0068B422A2
:108F7000FF2107F001BD10B50446FFF7F7FF18B158
:108F80002046BDE81040DCE710BDCA4341EA0212AA
:108F90000068D2B2D22107F0EFBC0A460068A521D2
:108FA00007F0EABC5521F8E710B50446FFF7F5FFD6
:108FB00018B12046BDE81040C3E710BD73B50546A3
:108FC000CDE90023FFF7D7FFA8B12846FFF7EAFF56
:108FD00088B12846FFF7B5FF68B16E46082416F839
:108FE000011B2846FFF7E0FF28B1013C14F0FF0405
:108FF000F5D102B070BD0020FBE7CC21D4E710B55D
:109000000446FFF7B8FF38B12046FFF7F6FF18B166
:109010002046BDE8104094E7002010BD70B506461C
:109020000C468D18AC4201D1012006E014F8011B5A
:109030003046FFF7B9FF0028F4D170BD00689622D2
:10904000FF2107F099BC0A460068872107F094BC0D
:1090500038B505461446FFF7F6FF2846FFF771FFBF
:1090600020B11CB12B79C3F34013237038BDC90163
:1090700001F080020068782107F07EBCC90138B594
:1090800001F0800104461546FFF7F1FF08B9002002
:1090900038BD002201212046FFF740FF0028F6D00E
:1090A00023795B092B70F3E738B504461546006851
:1090B0000A46E12107F060FC30B120682A46FF2112
:1090C000BDE8384008F090B938BD0A46C321EBE747
:1090D00038B5021D0D46F0210446FFF7E5FF08B143
:1090E00023792B7038BD0A46E121DDE738B5044607
:1090F0000D46FFF7A3FF40B12046FFF722FF20B146
:1091000029462046BDE83840EDE7002038BD70B55F
:1091100006460C468D18AC4201D1012006E02146DE
:109120003046FFF7E3FF01340028F4D170BD024B55
:10913000D3F8A00007F0C5BA102600200E49D1F8D8
:10914000883043F47003C1F888300C4B1A68002053
:1091500042F001021A6098601A6822F0847222F4C8
:1091600080321A60064A5A601A6822F480221A6015
:10917000D860044B8B60704700ED00E0003802407F
:10918000103000240000000870472DE9F0414769C5
:1091900006468846002F59D10368C3F30D0515B361
:1091A000D8F800803568FFF701F8092840F087807B
:1091B000444C236923F440732361236943F400730F
:1091C0002361236943F001032361C5F80080FEF7A2
:1091D000EDFF2369092823F0010323616FD1336870
:1091E0000433336032E0384A934229D302F5804297
:1091F000934224D302F5804293422AD3334A9342C6
:1092000029D902F58032934227D902F500329342E0
:1092100025D902F50032934223D902F50032934258
:1092200021D902F5003293421FD902F580229342E0
:109230001DD9B3F1016F1CD3052009F03EFC0825B0
:10924000FEF7B4FF092816D04FF0FF373846BDE8C7
:10925000F0811025F4E71825F2E72025F0E728250E
:10926000EEE73025ECE73825EAE74025E8E7482532
:10927000E6E75825E4E7134C236923F440732361A0
:10928000236943F400732361236923F0F803236106
:1092900023691D4345F002052561236943F48033AA
:1092A0002361FEF783FF236923F00203236123690F
:1092B000092823F0F80323613FF472AFC4E76FF08D
:1092C0000107C3E7003C024000400008FFFF000820
:1092D000002808DB4209012300F01F0003FA00F018
:1092E000014B43F82200704700E100E00028ACBFCA
:1092F00000F16040064B4FEA0111ACBF00F5614040
:1093000000F00F00C9B2B4BF195480F800137047C1
:1093100014ED00E02DE9F04798463C4B914603EBF5
:10932000800205469468002C45D02833636004F120
:109330003E03A36104F59F73E3614FF48073C4E9B6
:109340000433236894F83D00E160A36306F0F9F864
:10935000064694F8440294F83CA0271D08B14CF04E
:109360007DF994F8450208B14CF078F9D4F8403210
:109370001BB1274A116B0B43136318F0080F23D05E
:109380000135EDB21EB14FF4E163F380357218F090
:10939000100F94F8462211D00221304606F0CEF884
:1093A00094F94702D4F84812FFF7A0FF94F9470256
:1093B000FFF78EFF3C462046BDE8F08718F0200FEF
:1093C00014BF12213221E8E719F0020F0CD06B1CF8
:1093D000DBB21EB14FF4A162F280337294F84622E0
:1093E0000221304606F0AAF819F0010FD8D05046F5
:1093F00006F0A7F80135EDB218B14FF4C163C38090
:10940000057294F846220221C8E700BFB8EF0508AC
:10941000003802400148FEF730BE00BF6400002063
:109420000148FEF72ABE00BFB002002070B5002838
:1094300028D04C684CB9426815685679AB8902222D
:109440009BB2B24023EA0203AB818A683AB943680F
:109450001D68AB8923F001031B041B0CAB818160E9
:1094600044B14468216864798D890223A3402B4369
:109470009BB28B8132B143681A6893899BB243F0E7
:109480000103938170BD0B4B30B51A4600241D7942
:10949000854208D1DD68294203D0142000FB042056
:1094A00030BD0029F9D00134062C03F11403EED1AC
:1094B0000020F5E710F0050838B503681B681C6844
:1094C000254B03F59F6393ED007A07EE902AB8EEE3
:1094D000477AF8EE677A013987EE270A8DB2DFED19
:1094E0001F7A30EE270A52F0A5FA1D4A2388013868
:1094F000944280B29BB212D002F5806294420ED0A8
:10950000B4F1804F0BD0A2F58032944207D002F51F
:109510008062944203D002F58062944202D123F02B
:1095200070039BB20F4A944206D002F580629442C7
:109530001CBF23F440739BB22380094BE5629C421D
:10954000208503D003F580639C4201D1002323864C
:109550000123A38238BD00BF000000200AD7233CAE
:1095600000000140001000402DE9F0434568A87953
:1095700010F0040300F002020BD0002017468046D2
:10958000042406466B79032B49D8DFE803F0094A27
:1095900089C990464FF480701F461C460126F1E7AA
:1095A0002D682B8C23F001031B041B0C2B84B5F8B6
:1095B00020C0B5F804902B8B23F073031B041B0C05
:1095C00043F0600E2CF0020C6E4B4FEA0C4C4FEA4D
:1095D0001C4C48EA06069D421FFA89F94CEA060C23
:1095E00003D003F580639D420AD14FF6F3730CEA72
:1095F00003033B4329F4407943EA040C40EA090998
:10960000A5F80490A5F818E06963A5F820C02B8B95
:1096100023F008031B041B0C43F008032B83BDE855
:10962000F0832D682B8C23F010031B041B0C2B8460
:109630002A8CB5F804E0B5F818C0524B2CF4E64C6F
:1096400022F020024FEA0C4C12044FEA1C4C120C80
:1096500048EA06069D421FFA8EFE4CF4C04C42EAD0
:10966000061203D003F580639D420BD122F08002E5
:1096700042EA071222F040022EF4406E42EA04123F
:109680004EEA800EA5F804E0A5F818C0A9632A8464
:109690002B8B23F400631B041B0C43F40063BDE716
:1096A0002D682B8C23F480731B041B0C2B842A8CB9
:1096B000B5F804E0B5F81CC022F400732CF0730C6C
:1096C000304A4FEA0C4C1B044FEA1C4C1B0C48EA76
:1096D000060695421FFA8EFE4CF0600C43EA062304
:1096E00003D002F5806295420BD123F4006343EA74
:1096F000072323F480632EF4405E43EA04234EEAFA
:10970000001EA5F804E0A5F81CC0E9632B84AB8B10
:1097100023F008031B041B0C43F00803AB837EE714
:109720002C68238C23F480531B041B0C2384258C6E
:10973000A288A38B25F400552D0448EA06062D0CBB
:1097400023F4E64345EA06350E4E1B041B0CB442D7
:1097500092B243F4C04303D006F58066B44203D10D
:1097600022F4804242EA8012A280A38321642584ED
:10977000A38B23F400631B041B0C43F40063A3833B
:109780004DE700BF0000014043685A79032A0FD813
:10979000DFE802F00205080B1868343070471868DB
:1097A0003830704718683C30704718684030704750
:1097B0000020704710B543681A685879084B034475
:1097C000012093F8D040138CA0409BB223EA000301
:1097D0001384138CA140194389B2118410BD00BFBA
:1097E000B8EF0508F0B5EFF31184102383F3128866
:1097F000C5684668AA68136823F0010313603268DD
:109800007779104E938936F817609BB223EA0603E6
:1098100093812A696D681F2A4FF0200385BF203A83
:1098200093409340EB6098BFAB60E3B283F3118841
:10983000C3689B6859601A6842F001021A600123EC
:109840000374F0BDB8EF05080268137D012B04BF57
:109850000223137592F82C100CBF4FF400730023F1
:10986000012904BF022182F82C1092F8441008BF8D
:1098700043F48063012904BF022182F8441092F866
:109880005C1008BF43F4006301290DD1022182F866
:109890005C1043F480534268116800224A628A894E
:1098A00092B213438B8101E0002BF4D17047034B3C
:1098B0000348D3F8A410FEF7ADBE00BF1026002069
:1098C0000000014010B5064C0648D4F8A410FEF77D
:1098D000A1FED4F8C4100448BDE81040FEF79ABEBB
:1098E00010260020000001400040014010B5064C49
:1098F0000648D4F8A410FEF78DFED4F8C81004482A
:10990000BDE81040FEF786BE102600200000014092
:109910000044014010B5064C0648D4F8A410FEF7E8
:1099200079FED4F8CC100448BDE81040FEF772BEB2
:10993000102600200000014000480140034B4FF07A
:109940008040D3F8A810FEF765BE00BF10260020A7
:10995000024B0348D3F8AC10FEF75CBE1026002083
:1099600000040040024B0348D3F8B010FEF752BE8B
:109970001026002000080040024B0348D3F8B41022
:10998000FEF748BE10260020000C00400348D0F827
:10999000083513B100F2FC40184770470000002062
:1099A0000348D0F8283513B100F21C50184770470F
:1099B000000000200348D0F8483513B100F23C50B5
:1099C00018477047000000200348D0F8683513B1ED
:1099D00000F25C5018477047000000200348D0F8A0
:1099E000883513B100F27C50184770470000002002
:1099F0000348D0F8A83513B100F29C5018477047BF
:109A0000000000200348D0F8C83513B100F2BC5064
:109A100018477047000000200348D0F8E83513B11C
:109A200000F2DC5018477047000000200348D0F8CF
:109A3000083613B100F2FC501847704700000020B0
:109A40000348D0F8283613B100F21C60184770475D
:109A5000000000200348D0F8483613B100F23C6003
:109A600018477047000000200348D0F8683613B14B
:109A700000F25C6018477047000000200348D0F8EF
:109A8000883613B100F27C60184770470000002050
:109A90000348D0F8A83613B100F29C60184770470D
:109AA000000000200348D0F8C83613B100F2BC60B3
:109AB00018477047000000200348D0F8E83613B17B
:109AC00000F2DC601847704700000020036823F0B4
:109AD000010303600023036043608360C36003618C
:109AE000212343612A4B984203D13D2243F8082C9D
:109AF0007047284B984204D14FF4746243F8202CED
:109B00007047254B984204D14FF4741243F8382C17
:109B10007047224B984204D14FF0746243F8502CA6
:109B200070471F4B984203D11E4A43F8642C70477C
:109B30001D4B984203D11D4A43F87C2C70471C4BA7
:109B4000984203D11B4A43F8942C70471A4B984211
:109B500004D14FF03D5243F8AC2C17E0174B98421C
:109B6000C3D0174B9842C7D0164B9842CCD0164B57
:109B70009842D1D0154B9842D6D0154B9842DAD0A6
:109B8000144B9842DED0144B9842E2D0704700BF8D
:109B9000106002402860024040600240586002406D
:109BA000706002403D00002088600240400F0020AD
:109BB000A060024000003D20B860024010640240F6
:109BC00028640240406402405864024070640240CD
:109BD00088640240A0640240B86402402DE9F0416C
:109BE0000022012603250B6806FA02FC3CEA030367
:109BF00031D10368540005FA04FE23EA0E03036022
:109C00000B79D0F800806FEA0E0703FA04FE013BDF
:109C10004EEA080E012BC0F800E011D883681F40FF
:109C200087604B798768A3403B438360436823EA9E
:109C30000C0343608B79476893409BB23B4343607E
:109C4000C36805FA04F723EA0703C360CB79C76842
:109C5000A3403B43C3600132102AC4D1BDE8F08168
:109C6000F7B51C2005F06DFC1121044605F041FC00
:109C7000204605F039FCC82008F049FE204605F0D2
:109C80002EFC1B2005F05DFC20B140F21113C380B7
:109C90000023037224B140F21123E38000232372D6
:109CA000C74B502283F843230822C3F88820BFF310
:109CB0004F8FBFF36F8FC34CC34D236B43F0010332
:109CC00023634FF4C05040F20233CDE90003BF4894
:109CD0006946FFF783FF436A23F470434362436A94
:109CE00043F420434362436A23F470234362436A8C
:109CF00043F420234362636C43F480436364636BE7
:109D000043F080036363B24BB24C01205861B24B05
:109D1000C4F8C03603F12C024833C4F8C836AF4B40
:109D2000C4F8C426C4E93753022384F8E4304FF062
:109D3000A043C4F8E83003F50063C4F8EC3003F541
:109D40008073C4F8F43003F50073C4F83031A3F520
:109D5000F073C4F8F83003F50073C4F83431A3F598
:109D6000F073C4F8FC3003F50073C4F83831A3F580
:109D7000F073C4F8003103F50073C4F83C31A3F567
:109D8000EC63C4F8F0304033C4F8A831C03384F831
:109D9000E700C4F86C312033C4F870312033C4F8C4
:109DA00074312033C4F878312033C4F87C31203347
:109DB000C4F880312033C4F884312033C4F88831AA
:109DC00003F52263C4F8AC3103F58053C4F8B03115
:109DD00003F58053C4F8B43103F58053C4F8B831A7
:109DE0004FF05023C4F8BC3103F58053C4F8C031A0
:109DF00003F58053C4F8C43103F58053C4F8C83167
:109E0000A3F5E4430022C4F8E83104F1DC0384F84C
:109E1000EE0184F8F02119461546402681F81C21F0
:109E2000A1F822210132042AC1E9496581F81D0106
:109E300081F81F51C1F8305101F12801EED1002203
:109E40001146402083F87423A3F87A230132042AB0
:109E5000C3E9DF0183F8751383F87713C3F8881318
:109E600003F12803EED14FF0A04300259A6822F0B9
:109E700001029A60DA6842F04002DA604BF05EFD5F
:109E800094F8E53094F8DF205B1B18BF01231B0119
:109E900043F0210363F31745D4F8E830012A9D63AA
:109EA00007D19A6822F03E0141F02A0161F30702CE
:109EB0009A60DA68C2F3076121F0600141F0400165
:109EC00061F31F62DA60D4F8E82100201060D4F852
:109ED000EC20116860F3CC21116094F8E71001299F
:109EE00012D1116841F00301116080225A6202F51B
:109EF00080029A6202F14012C3F804214FF4A0726A
:109F0000C3F80821C3F80C2110204BF0F9FC002302
:109F10000093009B43F010030093D4F8E830009ABC
:109F20001A612F4A19690091013A02D00099C906B5
:109F3000F8D4D4F8EC1094F8DD502A4E00224FF0FB
:109F4000FF300A6117464A614FF0FF0C8861CA6111
:109F5000AA4251D30022244E17464FF0FF0C9542DF
:109F60005CD80A6942F480720A6194F8DF20012A01
:109F700004BF1E480863002199614FF0FF306FF065
:109F8000804159615860596119499961B2FA82F268
:109F90001849520941EA021299690A439A619A687A
:109FA00042F001029A60D4F8C4361B689847044B0B
:109FB000502283F8432308229A6003B0F0BD00BF0B
:109FC00000E100E000380240080401000000024007
:109FD000003C014010260020FC060020400040010B
:109FE000410D0300042700204027002003018100C9
:109FF0000008008008383C0056F8040BD0F800E058
:10A00000BEF1000FACBF4FF0000E4FF0904EC0F805
:10A0100000E001320761C0F808C099E756F8040B68
:10A02000D0F800E0BEF1000FACBF4FF0000E4FF0D3
:10A03000904EC0F800E001320761C0F808C08EE71A
:10A04000204A936803F00C03042B10B520D0082B92
:10A0500020D01D4B1B4C0360A3681C4AC3F30313A1
:10A06000134493F860170368CB404360A168C1F3C1
:10A070008221114491F8601723FA01F18160A168EF
:10A08000C1F342310A4492F86027D340C36010BD47
:10A090000F4BDFE75368516813F4800F01F03F0165
:10A0A000536814BF0A4A084AB2FBF1F1054A5268E4
:10A0B000C2F30142C3F3881301324B435200B3FB96
:10A0C000F2F3C7E7003802400024F400000000204B
:10A0D00000127A00F0B5446B8668A38923F400531C
:10A0E0001B041B0CA3818279278A0546BFB210038B
:10A0F00012F0040F4FEA022100F400506A7927F4AD
:10A10000405740EA0700208214BF4FF4805C4FF0B4
:10A11000000C12F0010F0CBF002304239207A28948
:10A1200022F4B05201F4806122F00C0248BF43F0E7
:10A13000080341EA0C0112040B43120C1A43A281DA
:10A14000A38A23F440731B041B0C85B0A3826846CA
:10A15000FFF776FF214B9C4203D003F580639C42BE
:10A160003AD1039BA2891921170401FB03F34FF095
:10A1700064014CBF7600B600B3FBF6F3B3FBF1F01D
:10A1800001FB10330201A08900044BBFDB001B015F
:10A19000323332334BBFB3FBF1F3B3FBF1F303F0D4
:10A1A000070303F00F0313439BB223816A6BAB7960
:10A1B00013F0080F938A0BBF23F008039BB21B0414
:10A1C00043F0080308BF1B0C938293899BB243F4AE
:10A1D0000053938105B0F0BD029BC3E7001001401E
:10A1E0002DE9F8431E46204B9DF820509DF8247021
:10A1F0009842894690462CD13B462A46314600205B
:10A20000FFF788F804460020C4E90700C4E9090004
:10A21000C4E90B986571A660A7712046FFF75AFF45
:10A22000EA0707D5636B4FF6DF721A80DA6842F0EF
:10A230002002DA60626BAB0742BFD36843F0800351
:10A24000D36093899BB243F4005393812046BDE8C9
:10A25000F883064B984204D13B462A4631460120FA
:10A26000CEE70024F2E700BF0010014000440040A8
:10A2700081602FE741712DE72DE9F043654F07EB32
:10A28000C00985B005464FEAC00899F8740705F083
:10A2900058F9064699F8750705F053F9044699F8F8
:10A2A00076074BF0DBF96B1CDBB21EB140F60E12E9
:10A2B000F28033721CB140F60E22E2802372042237
:10A2C0003A21304605F03AF9204604223A2105F0B9
:10A2D00035F907EB0803D3F870474F4B9C4263D125
:10A2E00003F5F2331A6A42F400121A621A6A22F46F
:10A2F00000121A62474497F87737022B6ED0032B6F
:10A300006ED0464E464A012B08BF1646A78827F056
:10A310003F0768463F04FFF793FE3F0C029A414B0C
:10A32000B2FBF3F398B20743A780218821F0010123
:10A330000904090C21803C498E4253D13B4BB2FBAE
:10A34000F3F2013092B2042A80B238BF0422208492
:10A35000A28323889BB243F001032380238823F444
:10A36000816323F002031B041B0C43F480632380EE
:10A370004FF480432381238823F080031B041B0CAC
:10A38000238023889BB243F001032380284B03EBF7
:10A390004513012283F8D126002283F8D05683F892
:10A3A000D22605B0BDE8F083224B9C4209D103F5CB
:10A3B000F0331A6A42F480021A621A6A22F48002A6
:10A3C00097E71D4B9C4295D103F5EE331A6A42F490
:10A3D00000021A621A6A22F400028AE7124E95E716
:10A3E000124E93E706EB4606B2FBF6F291B2C2F3C9
:10A3F0000B020AB941F0010141F400424FF4967199
:10A400004B434FF47A71B3FBF1F301339BB22384D6
:10A410009EE700BF0000002000540040801A0600A4
:10A4200000350C0040420F00A0860100400D0300E3
:10A430001026002000580040005C00402DE9F04745
:10A44000B84E440106EB401908F022FA99F9D026DB
:10A45000B54B8846D10003EBC2020746D2F87057CD
:10A4600099F8D226013A142A00F28380DFE812F02C
:10A4700079008900A100BA00C700D100DC00F40017
:10A4800001010A01170168018601B8010F022202C9
:10A4900034023F025F02820215005F184FF0090A82
:10A4A00097F8740705F04DF8054697F8750705F01D
:10A4B00048F8B6F8303701339BB207462846A6F86D
:10A4C000303705F00CF8384605F009F81121284618
:10A4D00005F00FF81121384605F00BF84FF065082C
:10A4E00003E00520002108F001FA284604F0EEFF01
:10A4F00010B9B8F10108F4D1284604F0F5FF0021A5
:10A50000052008F0F3F9284604F0E9FF05200021B2
:10A5100008F0ECF9BAF1010AE0D1284604F0E4FFB2
:10A520000021052008F0E2F9384604F0DDFF0021A3
:10A53000052008F0DBF9284604F0D1FF05200021B2
:10A5400008F0D4F9384604F0CAFF331993F9D0065D
:10A55000431C01D0FFF790FE3319002283F8D22666
:10A5600007E02B8813F4007340F0D081321982F891
:10A57000D236331993F8D236002B7FF465AFBDE89D
:10A58000F0872B8823F400631B041B0C2B802B8883
:10A590009BB243F480632B802B889BB243F480737F
:10A5A0002B803319032283F8D226604B2344C3E95E
:10A5B00002785F492846FDF70AFE002800F0A681D0
:10A5C000331993F8E2265AB993F8E326FF2A04D107
:10A5D00093F8E0260AB10A22C0E733190422BDE746
:10A5E0000F22BBE7321992F8E13603F0FE032B820B
:10A5F000052382F8D2364D4B2344C3E902784D49F6
:10A600002846FDF7E4FD002800F078813319062282
:10A61000A4E7331993F8E3262A82072283F8D22687
:10A62000424B2344C3E9027843492846FDF7CFFD56
:10A63000002800F063813219D2F8E43653B92B8830
:10A640009BB243F400732B80384B2344C3E9027858
:10A6500001238CE708238AE72B889BB243F480739D
:10A660002B803319092283F8D226304B2344C3E9C7
:10A6700002782F492846FDF7AAFD002800F0468100
:10A680003319A8E7321992F8E13643F001032B821F
:10A690000B2382F8D236254B2344C3E9027827499D
:10A6A0002846FDF794FD002800F028813219D2F8E1
:10A6B000E436012B1BD12B8823F480631B041B0C75
:10A6C0002B80EFF31181102383F312882B8B2B88BF
:10A6D0009BB243F400732B80CBB283F311880C231D
:10A6E00082F8D236114B2344C3E9027841E7022BAA
:10A6F00015D12B889BB243F400632B80EFF31181BB
:10A70000102383F312882B8B2B8823F480631B0484
:10A710001B0C2B80CBB283F311880D23E0E72B8B2E
:10A720000E23DDE71026002000000020E02C002092
:10A7300001000300820007008400070002000300FC
:10A7400094492846FDF74EFD934B002800F0DF802A
:10A7500031192344D1F8E826501CC1F8E806288AAC
:10A760001070D1F8E426013AC1F8E4260122C3E9C9
:10A77000027881F8EC2681F8D226FAE68749284645
:10A78000FDF730FD844B002800F0C180EFF3118C01
:10A79000102282F312882A88301992B2D0F8E81673
:10A7A00042F400722A804A1CC0F8E8262A8A0A70FD
:10A7B0005FFA8CF282F31188D0F8E826511CC0F8B9
:10A7C000E816298A11706FF00102C0F8E4262344CC
:10A7D0000122C3E9027880F8EC2680F8D226C8E688
:10A7E0006E492846FDF7FEFC6B4B002800F08F8079
:10A7F0003219D2F8E41603292AD1298821F480617C
:10A800000904090C2980EFF3118C102181F31288BF
:10A81000D2F8E806411CC2F8E816298A0170298896
:10A8200089B241F4007129805FFA8CF181F31188BB
:10A83000D2F8E816481CC2F8E806288A0870D2F850
:10A84000E4160239C2F8E4160C2182F8D2164AE75F
:10A8500002290FD8298821F480610904090C298074
:10A86000298889B241F400712980298A002182F85F
:10A87000EC16EAE6D2F8E816481CC2F8E806288A80
:10A880000870D2F8E4160139C2F8E4162BE72B88D9
:10A8900023F4806332191B041B0C2B8092F8E136E1
:10A8A00003F0FE032B82102382F8D2363A4B234466
:10A8B000C3E902783A492846FDF789FCF0B133191B
:10A8C00093F8E326FF2A04D193F8E0260AB1132275
:10A8D00044E63319112241E6331993F8E3262A821C
:10A8E000122283F8D2262C4B2344C3E902782D4947
:10A8F0002846FDF76CFC08B13319E8E72A492846D9
:10A90000FDF770FC10B13319142227E6224B2344C3
:10A91000D3E9020142F21073381A68EB0108984239
:10A9200078F10003FFF425AE3319152216E631192C
:10A93000194BD1F8E4268AB1D1F8E806234410F87F
:10A9400001CBA5F810C0013AC3E90278C1F8E806C6
:10A95000C1F8E426122381F8D2360AE62A8892B298
:10A96000234442F400722A80C3E90278012381F86B
:10A97000EC36F0E72B889BB243F400732B804FF644
:10A98000FF33AB82044B2344C3E90278012233191D
:10A99000E4E500BF40000010E02C0020040000109F
:10A9A00082000700840007000004001038B5114C35
:10A9B00004EB401494F8D156D5B1C4F8E436049BA6
:10A9C000C4F8E836002384F8EC360223490084F802
:10A9D000E32684F8D23601229DF8143084F8E1167B
:10A9E00084F8E22684F8E036FFF728FD94F8EC5668
:10A9F000284638BD1026002038B5114C04EB401411
:10AA000094F8D156CDB1C4F8E436049BC4F8E836C6
:10AA10000223490084F8E32684F8D23600229DF808
:10AA2000143084F8E11684F8E22684F8EC2684F8E1
:10AA3000E036FFF703FD94F8EC56284638BD00BF1A
:10AA400010260020F0B587B0002300930193744BCB
:10AA50001A6842F480321A601A6802F400320192D5
:10AA6000009A01320092019A1AB9009AB2F5A04FE9
:10AA7000F2D11B6813F4003318BF01230193019B2B
:10AA8000012B40F0B180664B66491A6C42F080524F
:10AA90001A640A6842F440420A609A689A609A68A6
:10AAA0009A609A6842F480529A605F4A5A601A68C3
:10AAB00042F080721A601A689201FCD55B4A40F23B
:10AAC000027111609A6822F003029A609A6842F05B
:10AAD00002029A60524A936803F00C03082BFAD1E1
:10AAE0009368534C03F00C03042B7FD0082B7FD0CA
:10AAF000504BC4F8F8344A4B4F4D9A684F48C2F354
:10AB000003122244002692F88817D4F8F824CA4089
:10AB1000C4F8F8244A4AEA605A6F4A4AAA605A6B53
:10AB200022F080025A635A6F42F080725A67196BA2
:10AB3000454A0A431A635A6B5A631A6C42F08752A9
:10AB400042F4F61242F41F6242F00F021A64596C8A
:10AB50003E4A0A435A6402A948F2FF73CDE902361D
:10AB60004FF6FF77FFF73AF800F580600297FFF79E
:10AB700035F800F580600297FFF730F800F5806047
:10AB8000FFF72CF800F58060FFF728F80846FFF77C
:10AB900057FA029B2E4AB3FBF2F32E4AC2F834371F
:10ABA000D5F8FC302C4A43F08073C5F8FC302B4BB1
:10ABB000C3F8B02F5E601A6842F001021A60D4F840
:10ABC000F8344FF47A72B3FBF2F3013BB3F1807FB8
:10ABD00008D24FF0E0225361F02385F82330072399
:10ABE0009661136107B0F0BD00BFFDE71C4B80E725
:10ABF0005368516813F4800F01F03F01536814BF8C
:10AC0000174A0C4AB2FBF1F1054A5268C2F30142FD
:10AC1000C3F3881301324B435200B3FBF2F368E7EE
:10AC2000003802400070004008304004003C024000
:10AC3000000000200024F40000ED00E000000240CD
:10AC40000003FA05000000081F9067003357070053
:10AC500040420F001026002055CEACC5001000E089
:10AC600000127A0082B000230193054B0193019BEF
:10AC700003EB80000190019B196002B0704700BF98
:10AC800050280040436D064A1A61C278012A06D155
:10AC900000F2CC5058611A684FF080221A60704759
:10ACA0001800086038B5044600296FD190F81131BA
:10ACB000022B2AD1D0F83821D0F824118A4232D977
:10ACC000C378012B04BFD0F828315B18A2EB010236
:10ACD00008BFC0F828314FF48071D0F82831C0F88F
:10ACE0003821002592B2A0F81C11C0F82C31C0F810
:10ACF0003451C0F8302100F58E714DF059F92B46D2
:10AD00002A46294620464DF069FA94F81631012B5F
:10AD100007D1244A236952F8B42C5A60002384F8DE
:10AD20001631002038BDD0F83C31B3FBF1F501FB02
:10AD30001535A5B9994212D8D0F8402193420ED2C8
:10AD40004FF48073C0E94A55C0E94C55A0F81C3156
:10AD500000F58E714DF02CF9C4F84051CFE7D4F8CE
:10AD6000E435DB682BB194F81221032A01D1204687
:10AD70009847052384F81131002320461A461946C6
:10AD80004DF02CFA2046FFF77DFFBEE7D0F8E43502
:10AD90005B69002BC5D090F81221032AC1D19847D6
:10ADA000BFE700BF1026002070477047704710B5FE
:10ADB000114C94F8E630CBB14FF0E022D2F8103DC0
:10ADC00023F00603C2F8103DFEF7B8F994F8E63018
:10ADD00063B1D4F8EC309B68DB0707D5D4F8E821E1
:10ADE000136823F0030161F307031360034B4FF46F
:10ADF00080225A6110BD00BF10260020003C014097
:10AE00002DE9F04F954CD4F8E8305A69D0078DB051
:10AE100000F1A1825A699B691340019300F09B8263
:10AE2000C3F307430293019B190311D5D4F8EC3007
:10AE3000DFF834929E69DB6904F1DC0B1E40360CAE
:10AE400004F598774FF00008DA46002E40F01281A2
:10AE5000029B5A070FD5D4F8EC30814E9F69DB690D
:10AE60001F40BFB2A6F118054FF00009A6F1F40883
:10AE7000002F40F04481019B9DF80470980741BF6A
:10AE8000764BD3F8E83002225A61019B002B1BDA83
:10AE9000724D95F8E6303BB1D5F8E821136823F000
:10AEA000030161F307031360D5F8EC206D48536884
:10AEB00023F0010353606C4BD3F8B0379847D5F8B3
:10AEC000E8304FF000425A61019B1905C3F3072691
:10AED00031D5624D00238DF81F3095F8EE318DF895
:10AEE0001F30614B05F1DC00D3F8AC379847D5F83B
:10AEF000E820D5F8EC304FF400619B68516195F87B
:10AF0000E620C2B1DA0716D595F8F131012B12D13E
:10AF10009DF81F30032B0ED1D5F8E8311A6842F0A6
:10AF200001021A601A6842F003021A604F4A13695C
:10AF300043F0060313613B070AD5484D4A4B05F120
:10AF4000DC00D3F8A4379847D5F8E83008225A61D6
:10AF5000FD0615D5414BD3F8E800826922F01002B6
:10AF60008261026AC2F34341022902F00F0500F038
:10AF70008381062900F0A781836943F01003836170
:10AF8000F00634D5354DD5F8EC205368002723F072
:10AF90000103536038464AF0B3FCB84695F8DD002B
:10AFA0003B46F435FF218342C0F09B81D4F8EC305E
:10AFB0002C484FF0FF329A614FF00112DA610B22F8
:10AFC00062F3070762F307085F61C3F810801A682D
:10AFD0006FF30A121A60FFF755FED4F8E8302148E3
:10AFE0004FF480525A61204BD3F8A8379847B106E6
:10AFF00040F19381194CD4F8EC30D4F8F4009968FE
:10B000000268C1F34101022906BF032161F30A026C
:10B010006FF30A0202605A6842F480725A6008A80C
:10B02000FFF70EF8D4F8E810D4F8EC00CB68099AD2
:10B030006FF38D23CB6085680D48C5F34105284427
:10B0400090F8D400032840F05381002284F8DE20D9
:10B050004FF40072A4F8E020092258E110260020E5
:10B0600004270020EC2600200000002000ED00E076
:10B07000B8EF0508F2073BD55FFA88F104EB8103CE
:10B08000D3F830319D68D4F8EC305B691D40EB0794
:10B0900020D594F8DF003B680125A8429D6007D1C8
:10B0A0001869DBF87C33C0F312001B1ACBF88C3321
:10B0B000D9F898375046984794F8DF30012B09D1DA
:10B0C000B8F1000F06D194F8ED31052B02D15046AE
:10B0D000FFF7D8FDA80742BF3B6802259D602907FE
:10B0E00006D5D9F8A037504698473B6808229A60A1
:10B0F00008F10108760804370BF1280BA5E6FB07D9
:10B1000077D5D8F8EC305FFA89FA1969586B08EBF3
:10B110008A0220FA0AFBD2F8F4204FEACB1B92688D
:10B120005FFA8BFB4BEA010B0BEA020B1BF0010FE2
:10B130001ED05A6BA8484FF0010B0BFA09F122EA16
:10B1400001025A633368C3F808B0A44B5146D3F8E0
:10B150009C37984798F8DF305B4509D1B9F1000F6B
:10B1600006D198F8ED31042B02D19B48FFF78AFDF8
:10B170001BF0080F1EBF33684FF0080BC3F808B070
:10B180001BF0100F1EBF33684FF0100BC3F808B050
:10B190001BF0400F1EBF33684FF0400BC3F808B0E0
:10B1A0001BF0020F1EBF33684FF0020BC3F808B04C
:10B1B0001BF0800F1DD0D5E94C329B1AD5F8242105
:10B1C000D6F800E098F8DFB0DEF81800934228BF08
:10B1D00013460333D8F8EC2003920AF1320A9B0895
:10B1E00008EB8A0A80B2984203D9D5E94C03984209
:10B1F00005D809F101097F080436283538E6C01A58
:10B20000D5F82431984228BF1846C31C9B08BBF1CF
:10B21000000F1CD0D5F82811D5F834210144C5F809
:10B220002811D5F8301102448A42DEF81800C5F81A
:10B230003421D7D1039A95F81C11526B4FF0010CB1
:10B240000CFA01F122EA010203994A63CAE7D5F830
:10B250002821049282B2DAF8E410033292108C466C
:10B2600005925946059A8A42D4D0049A52F8212070
:10B27000CCF800200131F5E747F6F07111423FF4B8
:10B280007BAE282101FB0531C2F30A12D71CD3F88B
:10B29000ACE1D1F85CC4BF1000218F420DD1282150
:10B2A00001FB0533D3F85C141144C3F85C14D3F8E4
:10B2B00068140A44C3F868245EE6DEF800804CF89F
:10B2C00021800131E9E7D3F8AC110F68C3F8A87603
:10B2D0000968C3F8AC16282101FB0533C2F30A1232
:10B2E000E5E755F8042B9160AA6B013391605AE6AB
:10B2F000012084F8DE004020A4F8E000A0F56400FE
:10B30000374CA0F562401044A04227D80E2262F3C9
:10B310008D23CB604FF400534B61029BDA060BD5B3
:10B32000304C2E4B04F1DC00D3F8B4379847D4F8F6
:10B33000E8304FF480125A61029B9B060BD5294CD2
:10B34000264B04F1DC00D3F8B8379847D4F8E8303E
:10B350004FF400125A610DB0BDE8F08F224CA2F5F7
:10B360007400A0F51050A04201D80D22CFE71F486D
:10B370001F4C1044A04201D20C22C8E71D4CA2F180
:10B380008C70A0F54340A04201D80B22BFE71A48B9
:10B390001A4C1044A04201D20A22B8E71848194CAE
:10B3A0001044A042FFF458AE174CA2F1B770A0F5BC
:10B3B0005850A04201D20822A9E71448144C104466
:10B3C000A04201D20722A2E712481044124A90423A
:10B3D00034BF062205229AE7EC2600200000002058
:10B3E0003F420F0010260020DFC810002013FBFE94
:10B3F00020D61300FF69180000D3CEFE40771B0053
:10B40000C05BB3FEC091210040AC2700C01D6AFEA6
:10B4100040E13300803C36FEE09C41004A090123B4
:10B4200001F01F0103FA01F150F822300B4340F8FC
:10B43000223070474A09012301F01F0103FA01F18C
:10B4400050F82230194214BF01200020704780EAD2
:10B450000120082341F2210210F4004F4FEA40007E
:10B4600018BF5040013B80B2F6D1704748400823D6
:10B4700010F0800F4FEA400018BF80F0D500013B6C
:10B48000C0B2F5D1704710B50A440C46944200D1C1
:10B4900010BD14F8011BFFF7E9FFF7E738B50A46BE
:10B4A000056804460020AA4203D36B1C2360287061
:10B4B00038BD12F8011BFFF7D9FFF4E782B08DED1C
:10B4C000010A019802B07047C31783EA4000704731
:10B4D0009FED087AC0ED020AC7EE007A00230360F0
:10B4E00030EEA77AC0ED017AC0EE877AC0ED037A1C
:10B4F000704700BF83F9223E80ED010A704700BF0C
:10B5000090ED017AD0ED007AC0ED020A30EE877A34
:10B51000C0EE876A30EE677AE6EE877AB0EE670AA9
:10B52000C0ED007A704700BF80ED000A704700BF91
:10B530009FED047AC7EE007A77EEA07A80EEA70A34
:10B54000704700BF4E2DA63D00230360436083601B
:10B5500080ED030A704700BFF5EEC00AF1EE10FA65
:10B5600006DCF0EE407A80ED000AB0EE670A704724
:10B5700060EE810A90ED007A77EE607AF4EEC07AA0
:10B58000F1EE10FA0ADC77EE200AF4EEC00AF1EED2
:10B5900010FA8CBFF0EE407AF0EE607AC0ED007ADF
:10B5A000B0EE670A704700BFB4EEE00AF1EE10FAA1
:10B5B00007D4B4EEC10AF1EE10FA88BFB0EE410A2A
:10B5C0007047B0EE600A7047874BB3FBF2F39942C5
:10B5D0000DD300234FF07E52026043608360C3604E
:10B5E00003610023836143610362C361704707EE17
:10B5F000902ADFED7E6AB8EE677A07EE901A27EEA2
:10B60000267AF8EE677A27EE277AFDEEC77A17EEEC
:10B61000903A2033402B00F2D880DFED757AB4EEFB
:10B62000E77AF1EE10FAF0EE477A0CDDDFED715AB1
:10B630009FED716AF0EE676AF4EEC66AF1EE10FAF9
:10B6400077EEE57AF6DCDFED6D6AF4EEE67AF1EEA0
:10B6500010FA0CD5DFED675A9FED696AF0EE676A64
:10B66000F4EEC66AF1EE10FA77EEA57AF6D4DFEDC5
:10B67000656AF4EEE67AF1EE10FA00F39C80DFEDF5
:10B68000626AF4EEE67AF1EE10FA03D5DFED5B6A5A
:10B6900076EEE77A27EEA76ADFED5C5ADFED5C6AAB
:10B6A0009FED5C5ADFED5C4AE6EE256ADFED5B5A02
:10B6B000A6EE265A27EE864AE6EE055AF7EE006A0F
:10B6C000E4EE257AF0EE665AE7EEA45AE7EEE46A75
:10B6D00086EEA54ADFED4B6A77EE267ABDEEE76A85
:10B6E00016EE103A2033402B68D8B4EEE67AF1EE2D
:10B6F00010FA0CDD9FED3F6ADFED3F6AB0EE677A2E
:10B70000B4EEE67AF1EE10FA77EEC67AF6DC9FED4B
:10B710003B7AF4EEC77AF1EE10FA0CD59FED356A5C
:10B72000DFED376AB0EE677AB4EEE67AF1EE10FA42
:10B7300077EE867AF6D49FED337AF4EEC77AF1EE9F
:10B7400010FA47DD9FED2A7A77EE677A67EEA76AEF
:10B750009FED2E6A9FED2E7ADFED2E4A9FED2F5A38
:10B76000A6EE867A27EEA63AE6EE874AB7EE006A9C
:10B77000A6EEA45AB6EE007AE3EE057AF8EE003AA9
:10B7800036EE676A67EEA37A26EE077AB7EE005ABE
:10B79000C5EE256A80ED044A26EE877A26EE866A93
:10B7A00066EEA77A80ED007A80ED016A80ED027A7C
:10B7B000C0ED037A15E7DFED0E6A69E7DFED187A71
:10B7C000B6EE007AB7EE006AE0E7B7EE004AF0EEB8
:10B7D000445A7FE79FED0C7AF4EEC77AF1EE10FA47
:10B7E000B4D59FED067AAFE720A1070027D4D23663
:10B7F000DB0F4940DB0FC940E4CB1641DB0F49C0EA
:10B80000E4CB16C1DB0FC93FDB0FC9BF9A7C2E36D4
:10B81000FAAF4FB93587083CF304353FA4AA2ABED6
:10B8200000000000FDEEC07A17EE903A2033402B66
:10B8300051D8DFED2A7AB4EEE70AF1EE10FA0CDD0A
:10B84000DFED276A9FED277AF0EE407AF4EEC77AB3
:10B85000F1EE10FA30EE660AF6DCDFED237AB4EE94
:10B86000E70AF1EE10FA0CD5DFED1D6A9FED1F7AA5
:10B87000F0EE407AF4EEC77AF1EE10FA30EE260AD6
:10B88000F6D4DFED1B7AB4EEE70AF1EE10FA18DD1C
:10B89000DFED127A37EEC00A60EE007A9FED157A7E
:10B8A0009FED156ADFED156AA7EE876A9FED147AA2
:10B8B000E7EE866A60EE275AA7EEA67AA5EE870A1B
:10B8C0007047DFED107AB4EEE70AF1EE10FAE3D537
:10B8D000DFED057ADEE79FED0C0A7047DB0F49408C
:10B8E000DB0FC940E4CB1641DB0F49C0E4CB16C1E6
:10B8F000DB0FC93F9A7C2E36FAAF4FB93587083C2B
:10B90000A4AA2ABEDB0FC9BF000000009FED2F7A5A
:10B9100070EE077AFDEEE76A16EE903A2033402B80
:10B9200051D8B4EEC70AF1EE10FA0CDD9FED286A8B
:10B93000DFED286AB0EE677AB4EEE67AF1EE10FA3F
:10B9400077EEC67AF6DC9FED247AF4EEC77AF1EE54
:10B9500010FA0CD59FED1E6ADFED206AB0EE677A13
:10B96000B4EEE67AF1EE10FA77EE867AF6D49FED31
:10B97000177AF4EEC77AF1EE10FA1ADD9FED187A15
:10B9800077EE677A27EEA77ADFED166ADFED165AB3
:10B990009FED166AE7EE265ADFED156AA7EE256AD7
:10B9A00027EE875AE7EE066AE5EE267AB0EE670ADA
:10B9B00070479FED107AF4EEC77AF1EE10FAE1D5F8
:10B9C0009FED057ADCE79FED0C0A7047DB0FC93F5E
:10B9D000DB0FC940E4CB1641DB0F49C0E4CB16C1F5
:10B9E000DB0F49409A7C2E36FAAF4FB93587083CB9
:10B9F000A4AA2ABEDB0FC9BF00000000BCEEC00A2B
:10BA000010B410EE103A9BB2894CB4FBF1F4A3428F
:10BA10000AD300234FF07E525DF8044B026043606E
:10BA20008360C3600361704707EE901A9FED817ACF
:10BA3000F8EE676A07EE903A66EE876AF8EE677A84
:10BA400066EEA76AFDEEE67A17EE903A2033402BB9
:10BA500000F2E180DFED787AF4EEE76AF1EE10FAB9
:10BA6000F0EE667A0CDDDFED755A9FED756AB0EE8B
:10BA7000677AB4EEC67AF1EE10FA77EEE57AF6DC84
:10BA80009FED707AF4EEC77AF1EE10FA0CD5DFED87
:10BA90006B5A9FED6D6AB0EE677AB4EEC67AF1EE3E
:10BAA00010FA77EEA57AF6D49FED687AF4EEC77AAD
:10BAB000F1EE10FA00F3A7809FED657AF4EEC77AF5
:10BAC000F1EE10FA03D59FED5F7A77EE677A27EEF5
:10BAD000A76A9FED607ADFED604A9FED605ADFED67
:10BAE000605AE6EE074A27EE864AA6EE245AB6EEDC
:10BAF000007AE6EE055AE4EE257A27EE877A9FED86
:10BB0000536A76EE867AFDEEE75A15EE903A2033C8
:10BB1000402B7BD8F4EEC66AF1EE10FA0CDDDFEDB7
:10BB2000475A9FED476AF0EE676AF4EEC66AF1EE97
:10BB300010FA77EEE57AF6DCDFED426AF4EEE67AAB
:10BB4000F1EE10FA0CD5DFED3D5A9FED3F6AF0EEB5
:10BB5000676AF4EEC66AF1EE10FA77EEA57AF6D4CB
:10BB6000DFED3A6AF4EEE67AF1EE10FA56DDDFED3B
:10BB7000326A76EEE77A27EEA76ADFED366ADFED06
:10BB8000364A9FED365ADFED365AE6EE264A27EE64
:10BB9000864AA6EE245AF8EE006AE6EE055AE4EE6E
:10BBA000257A67EEA66A012A1CBFB7EE006A76EE18
:10BBB000677A87EE206A5DF8044BB7EE007A76EE7E
:10BBC000074A18BFF6EE005A87EE245A18BF67EEF0
:10BBD000A55A37EE466A04BFF0EE667AF7EE005AD1
:10BBE00025EE857A67EE857A65EE266A26EE056A89
:10BBF00080ED007AC0ED017A80ED027AC0ED036A33
:10BC000080ED046A70479FED0C7A5EE7DFED156A00
:10BC1000F0EE667AC7E79FED137A70E7DFED0C6A06
:10BC2000F4EEE67AF1EE10FAA5D5DFED066AA0E7AC
:10BC300020A1070027D4D236DB0F4940DB0FC940D3
:10BC4000E4CB1641DB0F49C0E4CB16C1DB0FC93F83
:10BC5000DB0FC9BF9A7C2E36FAAF4FB93587083C47
:10BC6000A4AA2ABE00000000B5EE400AF1EE10FAC8
:10BC700025D007EE902AF8EE670ADFED117A08B5B5
:10BC8000034660EEA70A0846F0EE406A4BB9FFF79C
:10BC90001FFCFCEEE66A16EE903A99B2BDE8084049
:10BCA00092E4022B06D0032BF3D1FFF741FCBDE851
:10BCB000084049E4FCF704FCFCF70EFCE9E7704798
:10BCC000BD378635B5EE400AF1EE10FA02D1044BCD
:10BCD0000B60704703280CBF024B034BF8E700BF13
:10BCE00055840008E58400086D85000830EE604A40
:10BCF00090ED016A037824EE066A002B5AD101F018
:10BD00000103D0ED0C7A002B60D074EE677AF0EE70
:10BD1000440A90ED0A7AC0ED0C0AB5EEC07AF1EE55
:10BD200010FAC7EE816A54DCD0ED037A66EEA76A9A
:10BD300090ED057AD0ED0B5A20EE077A76EE077A71
:10BD400077EEA57A77EEA67AF4EEE71AF1EE10FA1E
:10BD500062DCB4EEE72AF1EE10FA8CBFB0EE670AAF
:10BD6000B0EE420A70EE677AD0ED044A90ED025AC6
:10BD700080ED107A67EEA47AB0EE657AE4EE057A8B
:10BD80004A0780ED0E6AA1EE277AC0ED0D5AC0ED8C
:10BD90000F6A80ED110A08D5F0EEC77AF0EEE56A79
:10BDA000F4EEE67AF1EE10FA4AD580ED0B7A0B0745
:10BDB00035D4704711F001034FF000020CBFF0EED4
:10BDC000607AF0EE447A0270002B9ED177EEE07A32
:10BDD0009FE7D0ED077A90ED035A80ED081AF5EE53
:10BDE000407AF1EE10FA04BFDFED175AC5EE877AFC
:10BDF00031EE277A08BFC0ED077AC1EE075AD0EDC1
:10BE0000067AC0ED095A76EEE76AE5EEA67A65EEA7
:10BE1000276AC0ED067A8BE7B0EE610AA2E7F4EE7E
:10BE2000C71AF1EE10FA08DCB4EEC72AF1EE10FAE8
:10BE30008CBFF0EE471AF0EE421AC0ED0B1A7047B5
:10BE4000B0EE657AB3E700BF83F9223E00230122FA
:10BE5000027083634363C363C362036303648361E8
:10BE600043647047DFED197A80ED010AF4EEE70ACA
:10BE7000F1EE10FAC0ED020A80ED031AC0ED051ACA
:10BE800010DC0023836003610023012280ED0A2A75
:10BE9000027083634363C363C362036303648361A8
:10BEA00043647047B4EEE70AF1EE10FA0CDD81EE60
:10BEB000007AC0EE207AF0EE006A77EE877A86EE9E
:10BEC000A77A80ED047ADFE70023DCE7BD3786350B
:10BED000F0EEC07AB0EEE07AB4EEE77AF1EE10FA66
:10BEE000B4BFB0EE676AB0EE476AB5EE406AF1EEF5
:10BEF00010FA46D0B4EEE77AF1EE10FA8CBFF0EE0D
:10BF0000675AF0EE475AC5EE866ADFED1F2ADFED6D
:10BF10001F3ADFED1F4A9FED1F5A9FED1F3A9FED1D
:10BF20001F4ADFED1F5AE6EEE23AA6EE834AE6EE3E
:10BF3000A34AB7EE006AA6EEA45AA6EE846AE6EE1D
:10BF4000855AC5EE866AB4EEE77AF1EE10FA48BF7C
:10BF5000DFED147AF5EEC00A48BF77EEE66AF1EE3F
:10BF600010FA48BFDFED107AB5EEC00A48BF77EE91
:10BF7000E66AF1EE10FA48BFF1EE666AB0EE660AC4
:10BF80007047DFED076ADEE739094E3DE3B59E3EB7
:10BF900088FA163E45FE7F3F99FB243F69A2163E74
:10BFA000A7DFA834DB0FC93FDB0F4940B7EE007AAB
:10BFB000F0EEC07AF4EEC77AF1EE10FA77EE676A27
:10BFC0001DD8B1EEE67ADFED0F5ADFED0F6A9FED77
:10BFD0000F6AE7EEA65ADFED0E6AA7EEA56AE7EE56
:10BFE000866A67EE266AB5EEC00AF1EE10FA44BF23
:10BFF0009FED087A77EE666AB0EE660A7047DFED6D
:10C00000066AF0E72716983D306E99BC843459BE15
:10C01000A40DC93FDB0F494000000000B0FBF1F365
:10C0200001FB130308463BB11946B0FBF1F301FBDA
:10C0300013030846002BF7D1704700BF44F250634A
:10C04000984203DDA0F50C40A0387047034B98429E
:10C05000BCBF00F50C40A030704700BFB0B9FFFF77
:10C0600048F6A043984203DDA0F50C40A038704785
:10C070000028B8BFC018704780EAE073A3EBE073F4
:10C080008B4203DB002803DD401A70470020704715
:10C09000FDD00844704700BF884203DB9042A8BF30
:10C0A000104670470846704700230361704770B51B
:10C0B0000378012B044635D10369214D23B9426829
:10C0C00012B955F8C42C4260D4ED067A77EE807A26
:10C0D000013304F11C062361C4ED067A3046FCF7F7
:10C0E0006BFA626855F8C43C9B1AA268934219D94E
:10C0F000E06A94ED0A0A4BF0AFF8D4ED057AB4EE9D
:10C10000E70AF1EE10FA0EDD237B4BB955F8C42C8B
:10C11000236100236260A3613046BDE87040C3E73D
:10C120000323237070BDD4ED047AD4ED066AF8EED3
:10C13000677A022386EEA77A84ED067AF1E700BFDC
:10C14000102600202DE9F04104461C30254604F15C
:10C150006402064650ED017AB1EC010A77EE807A6E
:10C1600040ED017AFCF728FA18309042F2D12369A9
:10C17000294F62680133236157F8C43C9B1AA268B7
:10C18000934246D904F13008E86A95ED0A0A4BF06B
:10C1900063F8A845D4ED057A1CD0B4EEE70AF1EEB9
:10C1A00010FA05F11805EFDD237B83BB57F8C42C8B
:10C1B0006260002223613046A261FFF775FF04F13F
:10C1C00034002263FFF770FFA26404F14C00BDE865
:10C1D000F04169E7B4EEE70AF1EE10FAE4DCD4EDE1
:10C1E000047AD4ED066AF8EE677A022386EEA77A1F
:10C1F000D4ED0C6A84ED067A86EEA77AD4ED126A45
:10C2000084ED0C7A86EEA77A84ED127A00E003239F
:10C210002370BDE8F08100BF1026002010B4019CFF
:10C22000401AA4EB030C00FB0CFC511A5DF8044B04
:10C230009CFBF1FC0CEB0300704700BF30EE600A82
:10C2400032EE612A71EE600A22EE002A82EE200AA6
:10C2500030EE210A704700BFD1ED007ADFEDE16AD0
:10C2600037EEA67ABDEEC76A16EE103A2033402BA1
:10C2700000F25882F4EEE67AF1EE10FA0CDDDFED12
:10C28000DB5A9FEDD96AF0EE476AF4EEC66AF1EE2A
:10C2900010FA37EE657AF6DCDFEDDE6AB4EEE67AA8
:10C2A000F1EE10FA0CD5DFEDD15A9FEDD16AF0EE28
:10C2B000476AF4EEC66AF1EE10FA37EE257AF6D444
:10C2C000DFEDC86AB4EEE67AF1EE10FA40F30282CE
:10C2D000DFEDC96A36EEC77A67EE076A9FEDC76A77
:10C2E0009FEDC75ADFEDC75AA6EE865A9FEDC66A84
:10C2F000E6EE855A27EE264AA6EEA56AA4EE067A51
:10C30000F0EE474ABDEEE77A17EE103A2033402BA5
:10C3100000F205829FEDB87AF4EEC77AF1EE10FADA
:10C320000CDD9FEDB26A9FEDB07AF0EE676AF4EE35
:10C33000C76AF1EE10FA77EEC67AF6DC9FEDB57AB1
:10C34000F4EEC77AF1EE10FA0CD59FEDA86A9FEDD6
:10C35000A87AF0EE676AF4EEC76AF1EE10FA77EEAB
:10C36000867AF6D49FED9F7AF4EEC77AF1EE10FA52
:10C3700040F3DB819FEDA07A77EE677A27EEA77A0C
:10C38000DFED9E6ADFED9E5A9FED9E6AE7EE265A2C
:10C39000DFED9D6AA7EE256A27EE874AE7EE066A7B
:10C3A000E4EE267AB0EE675A91ED017ADFED8D7AF0
:10C3B00077EE276ABDEEE66A16EE103A2033402B80
:10C3C00000F2A681B4EEE77AF1EE10FA0CDDDFEDB3
:10C3D000875ADFED857AB0EE666AB4EEE76AF1EE71
:10C3E00010FA76EEE56AF6DCDFED8A7AF4EEE76ABB
:10C3F000F1EE10FA0CD5DFED7D5ADFED7D7AB0EE6F
:10C40000666AB4EEE76AF1EE10FA76EEA56AF6D443
:10C41000DFED747AF4EEE76AF1EE10FA40F39B81F7
:10C42000DFED757A77EEE66A66EEA67ADFED735A8F
:10C430009FED734A9FED736AA7EEA54ADFED725A2E
:10C44000A7EE846A66EEA73AE7EE865AE3EEA56A9F
:10C4500066EEC52A24EEA63AB0EE666AFDEEC77A0D
:10C4600017EE903A2033402B00F24F81DFED627AD5
:10C47000B4EEE77AF1EE10FA0CDDDFED5C5ADFED99
:10C480005A7AF0EE476AF4EEE76AF1EE10FA37EE08
:10C49000657AF6DCDFED5F7AB4EEE77AF1EE10FA5A
:10C4A0000CD5DFED525ADFED527AF0EE476AF4EE2A
:10C4B000E76AF1EE10FA37EE257AF6D4DFED497A25
:10C4C000B4EEE77AF1EE10FA40F33A81DFED4A7A02
:10C4D00037EEC77A67EE077ADFED485A9FED484A94
:10C4E000DFED486AA7EEA54ADFED475AE7EE846A1A
:10C4F00067EE273AE7EEA65AA3EEA57AF0EE476A72
:10C50000D1ED027ADFED375A37EEA57ABDEEC74A94
:10C5100014EE103A2033402B00F2EC80F4EEE57A72
:10C52000F1EE10FA0CDDDFED313A9FED2F4AF0EE1F
:10C53000475AF4EEC45AF1EE10FA37EE637AF6DC9D
:10C54000DFED345AB4EEE57AF1EE10FA0CD5DFEDFA
:10C55000273A9FED274AF0EE475AF4EEC45AF1EE1F
:10C5600010FA37EE237AF6D4DFED1E5AB4EEE57AF0
:10C57000F1EE10FA40F3FA80DFED1F5A35EEC77A7C
:10C5800067EE075A9FED1D4A9FED1D2ADFED1D3A0C
:10C59000A5EE842A9FED1C4AE5EE823A67EE251A45
:10C5A000A5EEA34AA1EE847A25EE072A64EE871A47
:10C5B00026EE821A26EE077A26EEA10AFDEEE75A4B
:10C5C00015EE903A2033402B00F28F80DFED0A5AAF
:10C5D000F4EEE57AF1EE10FA27DDDFED043A9FED97
:10C5E000024A19E0DB0FC93FE4CB1641DB0FC9401B
:10C5F000E4CB16C1DB0FC93FDB0F49409A7C2E36D6
:10C60000FAAF4FB93587083CA4AA2ABE0000000043
:10C61000DB0FC9BFDB0F49C0F0EE675AF4EEC45A16
:10C62000F1EE10FA77EEE37AF6DC5FED065AF4EEFF
:10C63000E57AF1EE10FA0CD55FED143A1FED144ACD
:10C64000F0EE675AF4EEC45AF1EE10FA77EEA37AE0
:10C65000F6D45FED185AF4EEE57AF1EE10FA40F3F5
:10C6600090805FED1B5A75EEE77A27EEA74A5FEDE3
:10C670001D5A5FED1D3A5FED1D0AE4EE253A67EEA7
:10C68000845AE4EE230A5FED203AE4EE203AE5EE28
:10C69000A37A64EEA74A65EE275AA6EEA42AE6EE30
:10C6A000E51A67EEC67A31EE241A75EEC05A80EDAF
:10C6B000007AC0ED017AC0ED026A80ED031AC0ED88
:10C6C000041AC0ED052AC0ED065A80ED072A80ED58
:10C6D000083A70475FED326AB4EEE67AF1EE10FA8E
:10C6E0007FF5FAAD5FED356AF4E55FED385AF0EEAF
:10C6F000657ADAE71FED3B2AF0EE421AB0EE420A05
:10C70000B0EE421AB0EE427A58E75FED406AF7E6C3
:10C710001FED423AF0EE432AB0EE436A9EE61FED6B
:10C72000455A41E65FED474AECE51FED477AF4EEE6
:10C73000C77AF1EE10FA7FF521AE1FED4A7A1BE6BB
:10C740005FED4D7AB4EEE77AF1EE10FA7FF5C2AE06
:10C750005FED507ABCE65FED527AF4EEE76AF1EEF7
:10C7600010FA7FF561AE5FED557A5BE65FED585AE2
:10C77000B4EEE57AF1EE10FA7FF502AF5FED5B5AA9
:10C78000FCE65FED5D5AF4EEE57AF1EE10FA7FF526
:10C790006CAF5FED605A66E700230361436183611C
:10C7A000C3610360036243628362C36243600363E5
:10C7B00043638363C3638360036443648364C364C8
:10C7C000C3607047D1ED017A91ED007AD0ED044A53
:10C7D00090ED065AD0ED075A90ED050AD0ED080A03
:10C7E000D0ED0A1AD0ED0C2A90ED0D3AD0ED0E3AAC
:10C7F00090ED091A90ED0B2AF8EEE76AD1ED027A76
:10C80000B8EEC77AF8EEE77A26EEA64AA7EE275AE0
:10C81000E7EE074AB0EE446A75EE875AA7EE076A5C
:10C82000E7EE272AE7EEA73AA7EE260AE7EE260A62
:10C83000E6EEA71AA6EEA73A31EE041AC0ED044AB6
:10C8400090ED0F4AD0ED104A80ED065AC0ED075A20
:10C8500090ED115AD0ED125AC0ED0E3AA7EEA76A2C
:10C8600034EE274A74EE874A75EEA75A35EE265AFB
:10C8700032EE262A80ED0F4AC0ED104A80ED115AA3
:10C8800080ED050AC0ED080A80ED091AC0ED0A1A0C
:10C8900080ED0B2AC0ED0C2A80ED0D3AC0ED125A46
:10C8A00090ED004A90ED025AD0ED014AD0ED133AD6
:10C8B000D0ED035AA7EE064AB0EE457AA7EE867A87
:10C8C000E6EE864AF7EE007A73EEA77A35EE866AD0
:10C8D000C0ED137A80ED004AC0ED014A80ED027A86
:10C8E00080ED036A704700BF10B5002403468446FC
:10C8F0008646002C00F00D81DEED006A9CED007A8A
:10C90000D3ED007AE6EEC77A012CC3ED007A00F091
:10C910000F81DEED016A9CED047AE6EEC77A032C06
:10C92000C3ED007A6CD1DEED026A9CED087AE6EE8A
:10C93000C77AC3ED007AD2ED007A90ED085AD0EDB7
:10C940000C5AD0ED044A92ED017AD2ED026A92EDD2
:10C95000036AA7EEE47AE7EEC56AA7EEE56A90ED12
:10C96000095AD0ED0D5AE7EE456AA5EEC76AD0ED3B
:10C970000E5AA5EEE66A81ED036A90ED0F5AC1EDFD
:10C98000026AC6EE055AC1ED035A90ED0B6AE5EE58
:10C99000C66AC1ED026A90ED0A5A81ED017A86EE0F
:10C9A000856A81ED026AD0ED066AA6EE667A81EDAF
:10C9B000017AD0ED076AA5EEE67A81ED017A90ED75
:10C9C000055AC1ED007AC7EE056AC1ED016A90ED26
:10C9D000017AE7EE667AC1ED007A90ED027AE7EE31
:10C9E000467AC1ED007A90ED037AE7EE657AC1ED03
:10C9F000007AD0ED006A87EEA67A81ED007A10BD4C
:10CA00009EED007ADCED016AD3ED017AE7EE667AFD
:10CA1000022CB1EE476AC3ED017ADEED016A9CEDAE
:10CA2000057AE6EEC77AC3ED017A40F0AC80DEED20
:10CA3000046A9CED007AD3ED047AE6EEC77A012C05
:10CA4000C3ED047A40F28780DEED056A9CED047A3E
:10CA5000E6EEC77A032CC3ED047A7FD19EED066A19
:10CA6000DCED086A93ED007AE6EE667AC7EE876A37
:10CA7000C3ED046A9EED086ADCED006AD3ED087A26
:10CA8000E6EE667A012CC3ED087A70D99EED096A4C
:10CA9000DCED046AE6EE667A032CC3ED087A07D172
:10CAA0009EED0A6ADCED086AE6EE667AC3ED087A66
:10CAB00093ED086AD3ED0C7AC6EE076A032CC3ED3A
:10CAC000086A9CED006ADEED0C6AE6EE667AC3ED5C
:10CAD0000C7A9CED046ADEED0D6AE6EE667AC3ED33
:10CAE0000C7A07D19EED0E6ADCED086AE6EE667AF6
:10CAF000C3ED0C7AD3ED0C6AC6EE877AC3ED0C7ADF
:10CB0000013414330EF1100E0CF1040C002C7FF4E0
:10CB1000F3AED3ED047A93ED007A93ED086AC7EE95
:10CB2000876AC6EE077AC3ED046AC3ED087AE1E7C7
:10CB3000DEED006A9CED016A93ED017AD3ED027A95
:10CB4000A6EEC67A83ED017A9CED027AE7EE667A6C
:10CB5000C3ED027A6BE793ED007A87E793ED007AF5
:10CB6000C7EE876A022CC3ED046AC9D082E7C7EE1C
:10CB7000876AC3ED086AC3D09CED006ADEED0C6ADB
:10CB8000D3ED0C7AB2E79CED027AD3ED027AE6EEB1
:10CB9000077A032CC3ED027ADCED066A9EED017A7A
:10CBA000E6EEC77AC3ED027A7FF441AFDEED026AAA
:10CBB0009CED0A7AE6EEC77AC3ED027ABBE600BFC7
:10CBC00010B584B00C46024669461030FFF78CFE63
:10CBD000DDED006A9DED017ADDED027AB6EE006AC8
:10CBE00066EE866A27EE067A67EE867A0120C4ED45
:10CBF000006A84ED017AC4ED027A04B010BD00BF72
:10CC000020EE000AFEEE007A60EE277A60EEA00ABF
:10CC10009FED020AC7EEA00A4FF0F2B854F82D407B
:10CC200008B54CF0E3F807EE900AF5EEC07AF1EEA5
:10CC300010FAACBFB1EEE70A9FED010A08BD00BFD4
:10CC4000000000002DE9F74F90469DF83020002AA3
:10CC500014BF4FF030094FF020090D9A1C1E0546F5
:10CC60000F46BABF64420123002312F8011B01B131
:10CC70002CB9A24663B100240D9EA41B12E0013C16
:10CC8000F3E7BD4204D2494628460193C047019BC1
:10CC9000BAF1010AF5D2EFE7BD4203D2284601936B
:10CCA000C047019B06EB040B16F8011B0029F3D1CA
:10CCB00033B15446002C07DCBAF1000FA8BFD344AF
:10CCC000584603B0BDE8F08FBD4202D2494628461F
:10CCD000C047013CEEE70FB437B50C4D06ABD5F8B5
:10CCE0003C1753F8042BD5F83807019348F084FA21
:10CCF0000446D5F8A00003F073FD0028F9D02046C3
:10CD000003B0BDE8304004B0704700BF10260020DB
:10CD10000EB403B503AB084953F8042BCDE900303A
:10CD200001A848F069FA019B00221A7002B05DF870
:10CD300004EB03B0704700BF0B86000803685A1C61
:10CD4000026019700368090A5A1C02601970704762
:10CD500003685A1C0260197003685A1C02600A0AB0
:10CD60001A7003685A1C02600A0C1A700368090ED4
:10CD70005A1C02601970704703685A1C02600A0A44
:10CD80001A7003685A1C02601970704738B504465F
:10CD90000068154651F03AFE23682B44236038BDE5
:10CDA0000CB470B5324CD4F84037ADF5267D1BB9C4
:10CDB000D4F84437002B38D094F84837994206D934
:10CDC000012303FA00F0D4F84C3718422DD054F860
:10CDD000C41C4FF47A7306A8B1FBF3F203FB1213E1
:10CDE0002449FFF795FF06AB0344AA9A2249019311
:10CDF0000546ABAB01A8009348F0FEF9019B591C16
:10CE000001910A211970019B0246591CD4F8400770
:10CE100001910021197070B103681B6A03B1984732
:10CE2000D4F8400706A903F0A9FC0DF5267DBDE85E
:10CE3000704002B07047D4F84447002CF5D0A6AB40
:10CE40002A44CDE9040026AE039306A9FD2302A8D7
:10CE50000232ADF810300296FFF798FF029B0222D3
:10CE600002A92046CDE9026349F052FCDDE700BF8C
:10CE700010260020A67A0608AF85000830B54FF4CA
:10CE8000004087B021F05CFC0446A0B34FF40041A1
:10CE900021F0B8FD02281CD1226848F201039A4211
:10CEA00029D1234C002584F8E4594FF4004047F081
:10CEB000D9FB00B3D4F8503783421ED0D4F82C38B5
:10CEC00083422FD0D4F8083998422ED0C4F8445762
:10CED00011E00023022294F90400CDE901234FF46C
:10CEE000612200924FF400411A4621F0E7FD104BF9
:10CEF000C3F8400728B907B030BD04F5EA63C4F8A9
:10CF000044370C4B04930C4B03930C4B02930C4B88
:10CF100001930C4B00930C4A0C4B02210020FFF7AD
:10CF20003FFFE8E704F62C03E9E704F60813E6E719
:10CF300010260020B27A0608BB7A0608C47A0608D2
:10CF4000D07A0608707A0608DB8306087E7A06081F
:10CF5000174A38B5D2F8E849033004EB9003B3F52B
:10CF6000007F19D802F6EC15C2F8E839114A02EB35
:10CF7000810120F00300D1F8F420C3F500731044C0
:10CF8000C1F8F4000C4A9B000421002005EB840446
:10CF9000FFF706FF204638BD0021084A0846FFF784
:10CFA000FFFE074A136843F0007313600024F1E7A3
:10CFB0001026002008370020D67A0608F97A0608DD
:10CFC00018E900202DE9F84F0268DFF8A480064632
:10CFD000002358F833108A420BD1DDB20D2D0CD945
:10CFE000204A00210520FFF7DBFE00242046BDE893
:10CFF000F88F01330E2BECD1F2E71B4F07EB850ABC
:10D000004FEA8509DAF8A4B0BBF1000F1AD10A2162
:10D010006420FFF79DFF0446CAF8A40028B9014622
:10D02000124A0520FFF7BCFEE0E76422594651F0A2
:10D0300026FFDAF8A43008EBC505C3E90053DB612D
:10D040005B63DB644F447179D7F8A440182000FB80
:10D05000014300221C46C3E903229E601A75043472
:10D06000C4E700BF077B0608102600202C7B0608BB
:10D0700090F0050803685A1C02601878704703682E
:10D080005A1C02601A4612F8021B0260587841EAE4
:10D090000020704710B502681146531C036011F858
:10D0A000024B0160D31C5178036093781B0443EA60
:10D0B0000123111D0160D078234343EA006010BDB5
:10D0C000D1E900329A4206D05A1C0A6008B11B7896
:10D0D00003700120704700207047D1E900239B1A9C
:10D0E000012B10B50446084604DDFFF7C8FF208079
:10D0F000012010BD0020FCE730B50A4404469142EF
:10D1000001D1002011E014F8013BA3F141001928DE
:10D1100011F8010BA0F1410598BF2033192D98BFDC
:10D1200020301B1A02D10028E9D130BD1846FCE797
:10D130006FF00042E0E710B50288C378A2F5FA620A
:10D14000910840F2B554013B04FB013381780C2473
:10D15000013902F0030204FB02120D49847901EB4C
:10D1600042021821B2F848211344027901FB03223C
:10D17000437900893C2101FB0233064A224401FB2A
:10D1800003224FF47A730021C2FB030110BD00BFDC
:10D19000B8EF050880436D382DE9F04190461F46F1
:10D1A00005464FF47A720023404639464BF07CFF27
:10D1B000284B3C21034493FBF1F201FB1233AB718A
:10D1C00092FBF1F301FB13226A7140F2B551182270
:10D1D00093FBF2F402FB143394FBF1F201FB1244D3
:10D1E000B4F5896F2B714FEA82032EDA40F2DA220E
:10D1F00094422CDCB4F5B77FB4BF00210121164A5C
:10D20000182000FB01220B2632F81600A04201DD97
:10D21000013EF9D103F5FA630B442B80731CAB700C
:10D220000C2303FB01660D4B03EB46060134B6F8F5
:10D230004831E41AEC704FF47A72002340463946C4
:10D240004BF032FF2A81BDE8F0810321D7E70221AC
:10D25000D5E700BF80BC92C700F10508B8EF05080C
:10D26000F0B5274D06460F460FCD8DB06C460FC466
:10D270000FCD0FC495E80F0084E80F0016F00303EC
:10D280003AD1642196FBF1F201FB126242B94FF4EC
:10D29000C87296FBF2F302FB1363003B18BF012335
:10D2A000721EC3F11D03002A019340F26D13104654
:10D2B00006FB03F3B8BFB01C03EBA0006FF06303E1
:10D2C00092FBF3F318444FF4C87392FBF3F210444B
:10D2D0000630694600240725013F51F8042BA74278
:10D2E00002EB000393FBF5F0C0EBC000A3EB0000E2
:10D2F00004D1101A0DB0F0BD0123D1E70134ECE7E1
:10D3000060F10508084BD3E9621251EA020309D023
:10D31000064B53F8C43C5B1842F10002C0E90032EE
:10D320000120704700207047083700201026002099
:10D3300037B505466846FFF7E5FF044638B1DDE935
:10D3400000232846FFF728FF204603B030BD40F2F7
:10D35000011328806B80A880A8712881F4E700BFA2
:10D360008842F0B54FF0010461D301FB04F4B0FB37
:10D37000F4FC8C45F9D284B3002A45D0002511E095
:10D38000BCF1090F2646CCBF372230229444B1426B
:10D3900083F800C0744603F1010305F101051CD8B0
:10D3A000B0FBFEFCB4FBF1FE04FB1C00002DE7D13A
:10D3B000BCF1000FE4DCA1420BD8B0FBFEFCBCF1D9
:10D3C000000F74460EFB1C00BEFBF1FED8DCA14230
:10D3D000F3D90CF1300C03F801CB00221A70F0BD28
:10D3E000BCF1090F2646CCBF4FF0570E4FF0300E60
:10D3F000F444B14283F800C02C4603F1010302F16A
:10D400000102EAD8B0FBF5FCB4FBF1F504FB1C000B
:10D41000002AE5D1BCF1000FE2DCA142D9D8B0FB73
:10D42000F5FC2C4605FB1C00B5FBF1F5F2E7844644
:10D43000002AA3D1E8E700BF0028BCBF2D2340424B
:10D4400070B5B8BF01F8013B092804464FF001034D
:10D4500007DD03EB83035B00B0FBF3F2092AF8D886
:10D460003BB3164D4FF0000C0AE0092A8CBF572140
:10D4700030210A44092B0EF8012B16D971460346B8
:10D48000A5FB0320B4FBF3F25CEA02068E464FEAEA
:10D49000D00003FB12440CF1010CE6D1092B01D999
:10D4A000B446EBE730320EF8012B00238EF8003043
:10D4B00070BD8E4600238EF8003070BDCDCCCCCC34
:10D4C00090422DE9F0410B46044615460AD2B0FBC6
:10D4D000F5F6134A05FB16441846135D00F8013BA8
:10D4E000BDE8F081B0FBF2F69642B6FBF2F706D249
:10D4F0000B4A05FB1767D15D03F8011BEAE7BA4247
:10D50000B7FBF2F807D9064A05FB187812F808109D
:10D5100003F8011BEDE74046FFF7D2FF0346F2E7B1
:10D52000707B0608B5EEC00ADFED307AF1EE10FA36
:10D53000CCBF30EE270A30EE670ADFED2D7A20EE01
:10D54000270A70B5FDEEC07A86B017EE904A054600
:10D5500084EAE470002303A9A0EBE470CDE9003372
:10D56000029348F09DF8002CACBF20232D2303A884
:10D570008DF800304AF0A6FF01286E4626D002281A
:10D580002DD003281CD003A9304651F080FC304632
:10D590004AF098FF0338C4B222463146284651F07B
:10D5A00035FA00232B5528464AF08CFF2E232B54A6
:10D5B00001303119284451F086FC284606B070BD70
:10D5C000302303A930468DF80130DEE743F2300204
:10D5D000302303A9ADF801208DF80330D4E743F2DE
:10D5E000300303A93046ADF80130CEE76F12033A9D
:10D5F00000007A440378202B024600F10100F9D0A4
:10D60000092BF7D02D2B25D02B2B00F0A280B7EEC5
:10D61000000AA3F13001C8B209289FED587A10D84A
:10D62000F2EE046A07EE901AF8EEE77A12F8013F7C
:10D63000E7EE267AA3F13001C8B20928B0EE677A86
:10D64000F0D92E2B62D003F0DF03452B07D020EE5C
:10D65000070A70475378BFEE000A0246D9E710B4B4
:10D6600051782D297AD02B290BBF9178A1F1300365
:10D67000A1F13003013208BF0232092B64D8002423
:10D68000002303EB830301EB430312F8011FA1F115
:10D6900030000928A3F13003F3D9B3F59A7F1A4675
:10D6A00028BF4FF49A72072B64D9DFED356A134611
:10D6B000F7EE007A083B072B67EEA67AFAD802F05D
:10D6C0000702DAB1F2EE046A012A67EEA67A15D0F3
:10D6D000022A67EEA67A11D0032A67EEA67A0DD049
:10D6E000042A67EEA67A09D0053A67EEA67A05D035
:10D6F00067EEA67A012A18BF67EEA67A34B387EEE2
:10D70000277A5DF8044B20EE070A70475378A3F19F
:10D710003001C8B2092802F1010294D8F2EE046A7D
:10D72000F0EE665A07EE901AF8EEE77A12F8013F2B
:10D7300087EEA66AA3F13001C8B2092866EEA56A91
:10D7400037EE067AEED97EE7F7EE007A27EE277AF3
:10D75000D7E75378B7EE000A02465AE79178A1F16D
:10D760003003092B02F1020288BFF7EE007AC6D817
:10D77000012485E7F7EE007AA3E700BF0000000070
:10D7800020BCBE4C0378202B024600F10100F9D0EA
:10D79000092BF7D0303BDBB2092B4FF000000AD841
:10D7A00012F8011F00EB8000303903EB4000CBB2D0
:10D7B000092BF5D97047704730B5014610F8013B89
:10D7C000202BFAD0092BF8D02D2B0ABF01460125BA
:10D7D0004FF0FF350139002009E0052C1BD8A2F1DC
:10D7E00037030A2B17D100EB800003EB400011F840
:10D7F000012FA2F130035FFA83FCBCF1090FA2F103
:10D80000610EA2F14104EED9BEF1050FE5D8A2F1F7
:10D8100057030A2BE7D005FB00F030BD10B50023FD
:10D82000802804D893420AD2C854581C10BD934291
:10D8300005D060F07F04CC54C0090133F0E74FF00D
:10D84000FF30F3E738B50C468D18AC4200D138BD37
:10D8500014F8011BFDF7FBFDF7E770B51249134CF7
:10D86000134E01220020FFF7EDFF228862B1A31DB5
:10D87000B34217D2A518B54214D2052A12D92146AF
:10D88000FFF7E0FF2C46F0E721460222FFF7DAFF20
